:020000040800F2
:10000000601000109D0100087510000871100008B4
:100010007310000867070008C51100080000000001
:10002000000000000000000000000000791000083F
:100030006907000800000000771000087B10000826
:10004000B7010008B7010008B7010008B7010008B0
:10005000B7010008B7010008B7010008B7010008A0
:10006000B7010008B7010008B7010008B701000890
:10007000B7010008B7010008B7010008B701000880
:10008000B7010008B7010008B7010008B701000870
:10009000B7010008B7010008B7010008B701000860
:1000A000B7010008B7010008B7010008B701000850
:1000B000B7010008B7010008B7010008B701000840
:1000C000B7010008B7010008B7010008B701000830
:1000D000B7010008B7010008B7010008B701000820
:1000E000B7010008B7010008B7010008B701000810
:1000F000B7010008B7010008B7010008B701000800
:10010000B7010008B7010008B7010008B7010008EF
:10011000B7010008B7010008B7010008B7010008DF
:10012000B7010008B7010008B7010008B7010008CF
:10013000B7010008B7010008B7010008B7010008BF
:10014000B7010008B7010008B7010008B7010008AF
:10015000B7010008B7010008B7010008B70100089F
:10016000B7010008B7010008B7010008B70100088F
:10017000B7010008B7010008B7010008000000003F
:10018000B7010008B7010008DFF80CD000F06AFAE8
:10019000004800474D1F00086010001006488047C7
:1001A00006480047FEE7FEE7FEE7FEE7FEE7FEE75C
:1001B000FEE7FEE7FEE7FEE7811000088901000880
:1001C0002DE9F05F0546002092469B46884606468C
:1001D000814640241BE0284641464746224600F01F
:1001E00078F853465A46C01A914110D31146184622
:1001F000224600F05FF82D1A67EB01084F462246B1
:100200000120002100F056F817EB00094E41201E96
:10021000A4F10104DFDC484631462A464346BDE8E6
:10022000F09FD2B201E000F8012B491EFBD27047CB
:100230000022F6E710B513460A4604461946FFF7B2
:10024000F0FF204610BD10B54843044601F0B6FE4D
:10025000002805D00021002C02D0641E0155FAE7C9
:1002600010BD00F0004230F000400AD0C10D01F591
:100270006071C0F3160042EA0151C2084007114301
:10028000704700200146704730B50B4601460020FC
:100290002022012409E021FA02F59D4205D303FA48
:1002A00002F5491B04FA02F52844151EA2F10102C9
:1002B000F1DC30BD202A04DB203A00FA02F10020F4
:1002C00070479140C2F1200320FA03F31943904094
:1002D0007047202A04DB203A21FA02F000217047FF
:1002E00021FA02F3D040C2F120029140084319469E
:1002F00070472DE9FE4F804681EA0300C00F0C468F
:10030000009021F0004123F00045B8EB0200A94124
:1003100005D24046214690461C460B46024623F035
:100320000040104347D0270DC7F30A00C3F30A511A
:100330000290401A019040286BDAC3F3130040F496
:10034000801B0098924620B10023D2EB030A63EB96
:100350000B0B01985946C0F140025046FFF7AAFF27
:1003600006460D4650465946019A00F08DF910EBAD
:1003700008006141002487EA115284EAE7731A43B6
:1003800040D0009A62B3019A012A4FEA075215DC65
:10039000001B61EB02014FF0004202EA0752CDE977
:1003A0000042001C41F5801132462B4600F08DF9C9
:1003B00003B0BDE8F08F40462146F9E7001B61EB32
:1003C0000201001C41F5801300185B412018A2F5C2
:1003D000001747EB030140EAD570B6196D4111E0F3
:1003E0006D084FEA360645EAC0754FEA0752001B12
:1003F00061EB0201001C41F5801149084FEA300011
:100400000019514132462B4603B0BDE8F04F00F0D1
:100410004DB90098012240000023D0EB020263EBAB
:10042000E073009821464FEAE074B8EB000061EBFE
:100430000401E9E783F000435BE781F0004158E7FE
:100440002DE9FE4F81EA030404F0004421F000414D
:1004500000944FF0000B23F0004350EA01045ED0FB
:1004600052EA03045BD0C3F30A54C1F30A552C4487
:10047000A4F2F3340194A0FB0254C1F3130141F43C
:100480008011C3F3130343F4801301FB024400FB08
:10049000034E840A970A44EA815447EA8357A4FB2F
:1004A000076802958D0A05FB07854FEA932C04FB2C
:1004B0000C542705029D4FEA065847EA1637B5EB5C
:1004C00008056EEB070C870E920E47EA811742EA89
:1004D0008312A7FB0201B6EB0B0164EB00042B0DAA
:1004E00043EA0C335E1844EB1C50DA465146E7FBF6
:1004F0000201C5F313044FEA0B3343EA14534FEAE6
:100500000432019C43EA0603A4F10C040294009C0B
:10051000CDE900B400F0D9F803B0BDE8F08F0020B9
:100520000146F9E72DE9F04D81EA030404F0004BA0
:1005300021F0004514464FF0000A23F0004150EA34
:10054000050220D054EA01021DD0C5F30A57024625
:10055000C5F31303C1F31300C1F30A5640F4801529
:1005600043F48013A7EB0608101BD64608F2FD38AB
:1005700073EB050002D308F1010801E092185B411A
:10058000B8F1000F03DA00200146BDE8F08D00202D
:100590004FF48011064684460EE0171B73EB0507E7
:1005A00005D3121B63EB050306434CEA010C490813
:1005B0004FEA300092185B4150EA0107EDD152EA50
:1005C000030012D082EA040083EA0501084305D043
:1005D000101BAB4106D20122002306E000224FF09F
:1005E000004302E06FF0010253101AEB06004CEBDF
:1005F000085110EB0A0041EB0B01BDE8F04D00F093
:1006000055B8C1F30A52C1F3130140F2FF3341F46C
:1006100080119A4202DA00200146704740F23343CB
:100620009A42A2F2334202DC5242FFF752BEFFF777
:1006300041BE000030B5041E71F1000404DB4FF030
:100640000044404264EB0101141E73F1000405DB19
:100650001C464FF00043524263EB0403994208BF2B
:10066000904230BD064C074D06E0E06840F00103C3
:1006700094E8070098471034AC42F6D3FFF788FDA2
:100680004020000870200008202A06DBCB17203A03
:1006900041FA02F043EAE07306E041FA02F3D04087
:1006A000C2F12002914008431946704710B5141E4C
:1006B00073F1000408DA401C41F1000192185B411B
:1006C0001A4301D120F0010010BD2DE9F04D9246F2
:1006D0009B4611B1B1FA81F202E0B0FA80F2203209
:1006E0009046FFF7E7FD04460F4640EA0A0041EA5C
:1006F0000B0153465A46084313D0114653EA0100F2
:1007000019D0C8F140025046FFF7E3FD05460E46FA
:10071000504659464246FFF7CDFD084305D001201B
:1007200004E020463946BDE8F08D0020054346EA46
:10073000E0762C4337430A986305E40AA0EB0800EF
:100740000022FD0A44EA47540A3002D5002001463F
:10075000E9E7010510196941DDE90845001969411A
:10076000BDE8F04DA2E7FEE7704700002DE9F84F25
:1007700000224FF0010803254FF00F0E0B6808FA16
:1007800002F42340A3426ED14E68012E05D0022E02
:1007900003D0112E01D0122E12D186684FEA420CDE
:1007A00005FA0CF7BE43CF6807FA0CF737438760AA
:1007B0004668A6430C79C4F3001494403443446063
:1007C000C668570005FA07FC8C6826EA0C06BC4090
:1007D0003443C4604C68022C01D0122C13D1D408CD
:1007E00000EB8404A346D4F8209054074FEAD46A5F
:1007F0000EFA0AF629EA06090E6906FA0AF646EA28
:100800000906CBF8206006680C7926EA0C0604F08D
:100810000304BC40344304604C68E40065D5364CA6
:10082000266846F480462660246822F0030604F415
:1008300080440094314C3444A446D4F808489607C8
:10084000370F0EFA07F6B4432D4EB04201D1002601
:1008500024E02C4EB04201D101261FE02A4EB042C6
:1008600002D102261AE040E0284EB04201D1032610
:1008700014E0274EB04201D104260FE0254EB042CD
:1008800001D105260AE0244EB04201D1062605E03A
:10089000224EB04201D1072600E00826BE40264382
:1008A000CCF808681E4E34684F689C43FF0300D59F
:1008B0001C4334601A4C241D26684F689E43BF03B6
:1008C00000D51E432660164E083634684F689C4398
:1008D000FF0200D51C433460114E0C3634684F685B
:1008E0009C43BF0200D51C433460521C102AFFF405
:1008F00045AFBDE8F88F00004438024000300140A9
:10090000000002400004024000080240000C0240C7
:10091000001002400014024000180240001C024077
:10092000003C014001488068704700000000001052
:10093000024881680278114481607047000000100D
:100940000B4810B5016841F400710160016841F481
:1009500080610160016841F480710160032000F052
:1009600057F8002000F006F800F024F8002010BD31
:10097000003C024070B50D4D04464FF47A71287862
:10098000B1FBF0F00A490968B1FBF0F000F0ECFAB5
:1009900048B9102C07D200222146501E00F018F84A
:1009A00000206C6070BD012070BD000000000010D0
:1009B0000C0000107047002809DB00F01F02012125
:1009C00091404009800000F1E020C0F8001170471C
:1009D000F0B40E4B1B680C46C3F30223C3F10705AA
:1009E000042D00D90425191D072901D2002300E098
:1009F000DB1E012606FA05F1491E214099409E4062
:100A0000761E16403143F0BC00F0EEBB0CED00E06A
:100A1000064900F0070208684FF6FF03184040EA55
:100A20000220034A10430860704700000CED00E00C
:100A30000000FA052DE9F0470E46050065D0DFF805
:100A40001481D8F80000F7B200F00F00B04207D2CE
:100A500088F80070D8F8000000F00F00B04254D1C0
:100A600028683D4C810712D5400703D5206840F423
:100A7000E05020602878000703D5206840F46040EB
:100A800020602068A96820F0F000084320602878E2
:100A9000C0072DD0304968680839012812D00228D3
:100AA00013D0032811D00968890700292DDA21689D
:100AB00021F0030101432160FFF734FF814641F239
:100AC000883A0EE009688903EFE709688901ECE7D5
:100AD000FFF728FFA0EB0901514502D90320BDE82B
:100AE000F0872068696800F00C00B0EB810FEFD14F
:100AF000D8F80010404601F00F01B14207D9077045
:100B0000006800F00F00B04201D00120E7E728782C
:100B1000400705D52068E96820F4E05008432060CC
:100B20002878000706D52068296920F4604040EA4B
:100B3000C100206000F038F82168084AC1F30311B1
:100B4000515CC8400649086006480068FFF712FF7C
:100B50000020C4E7003C024008380240282000087A
:100B60000C000010040000100448054900680968E2
:100B7000044AC1F38221515CC84070470C00001048
:100B80000838024038200008044805490068096810
:100B9000044AC1F34231515CC84070470C00001058
:100BA0000838024038200008154810B5006810F0D9
:100BB0000C02144813D01449042A0FD0082A0ED16D
:100BC0000F4C241F2268236802F03F025B0207D506
:100BD0002068C0F38810A0FB010106E0084610BDA4
:100BE0002168C1F38811A1FB00010023FFF7E8FA97
:100BF0002168C1F30141491C4900B0FBF1F010BD6F
:100C0000083802400024F40040787D012DE9F84FB7
:100C100004006ED02078DFF83C93C007A9F10405EA
:100C20004AD009F104000168C1F38101012908D00B
:100C30000068C0F3810002280AD1D9F80000400200
:100C400006D52868800337D560680028E1D033E0F6
:100C50006068B0F5803F10D0B0F5A02F286810D0A4
:100C600020F480302860286820F4802028606068A4
:100C7000A8B1FFF757FE06460DE0286840F4803023
:100C8000F4E740F480202860F7E700BFFFF74AFE52
:100C9000801B642873D828688003F7D50CE0FFF721
:100CA00041FE064605E000BFFFF73CFE801B6428BE
:100CB000F0D828688003F7D42078DFF89C8280077A
:100CC0004FF0000A3ED5A348001D016811F00C0F3B
:100CD00008D00068C0F3810002280BD1D9F80000C9
:100CE000400207D42868800716D5E068012800D1A3
:100CF00012E02BE1E068B8B10120C8F80000FFF76E
:100D000011FE064605E000BFFFF70CFE801B02281F
:100D1000C0D828688007F7D52868216920F0F80036
:100D200040EAC10028600DE0C8F800A0FFF7FAFD16
:100D3000064604E0FFF7F6FD801B02281FD828684E
:100D40008007F7D42078000722D5824E8348616956
:100D5000703671B101210160FFF7E4FD074604E040
:100D6000FFF7E0FDC01B022809D830688007F7D5DF
:100D70000EE0C0F800A0FFF7D5FD074605E082E0D1
:100D8000FFF7D0FDC01B02287DD830688007F7D45C
:100D90002078400768D5DFF8BCB100270BF13C0B89
:100DA000DBF80000C0000BD4DBF8001041F08051EC
:100DB000CBF80010DBF80000012700F08050009015
:100DC000674E3068C00510D4306840F480703060E1
:100DD000FFF7A8FD009005E0FFF7A4FD0099401A79
:100DE000022850D83068C005F6D55A4EA0686C3637
:100DF00001280FD00528306810D020F001003060A5
:100E0000306820F004003060A068B8B1FFF78AFDB8
:100E100000900FE0306840F00100F4E740F004007B
:100E20003060F7E7FFF77EFD0099411A41F2883004
:100E3000814266D830688007F4D50EE0FFF772FD76
:100E4000009007E0FFF76EFD0099411A41F28830EB
:100E5000814256D830688007F4D42FB1DBF80010F7
:100E600021F08051CBF80010A069C8B33949091DA1
:100E70000968C1F3810102294AD00228504607D0EF
:100E8000C8F8600000E03CE0FFF74CFD04463BE0A2
:100E90004746C8F86000FFF745FD064605E000BF7D
:100EA000FFF740FD801B02282BD828688001F7D46B
:100EB000D4E907010843A16A2A4A490802EB014123
:100EC000626A41EA8211084394F82C1040EA0161F9
:100ED000C9F8001001203866FFF724FD044606E03B
:100EE00036E000BFFFF71EFD001B022809D8286866
:100EF0008001F7D52CE000BFFFF714FD001B02288E
:100F000002D90320BDE8F88F28688001F4D41FE0DF
:100F10000128F7D0D9F80000E26900F4800191427D
:100F200014D1226A00F03F0191420FD147F6C071FF
:100F3000626A0140914209D1A26A00F440319142B3
:100F400004D1E16A00F07060884201D00120D9E745
:100F50000020D7E70438024000004742800E474295
:100F6000007000400000FFFF10B5401EB0F1807F10
:100F700001D3012010BD4FF0E02460610F21601704
:100F800000F032F90020A06107202061002010BD90
:100F900070B5040004D094F83900002510B106E0C3
:100FA000012070BD84F83850204600F023F824203A
:100FB00084F839002068C16821F40051C1602046DE
:100FC00000F06CF82068016921F49041016120680B
:100FD000416921F02A0141612068C16841F4005152
:100FE000C160E563202084F8390084F83A000020CD
:100FF00070BD000010B500681A4986B088422FD134
:101000001948016841F001010160006800F0010029
:10101000059015481430016841F010010160006826
:10102000012100F0100005904FF4007000900220A4
:10103000CDE90101039007200C4C0490694620463D
:10104000FFF794FB2015009069462046FFF78EFBC2
:101050002520FFF7B0FC032211462520FFF7B8FC3E
:1010600006B010BD001001403038024000000240C0
:10107000FEE7FEE7704770477047FFF759BC000076
:101080000548016841F47001016003494FF00060B8
:10109000803908607047000088ED00E02DE9F041DC
:1010A000044600680169E26821F44051114301617E
:1010B0002169A068E2690843616911430843216816
:1010C000CA6849F20C639A430243CA6020684169C6
:1010D000A26921F4407111434161E0691927642537
:1010E0003226B0F5004F354A354920684FF00008E8
:1010F00006D0884201D0904236D1FFF745FD35E059
:10110000884201D0904202D1FFF73EFD01E0FFF797
:101110002BFD61684A18A0FB070148EB0803FFF7A5
:101120004FF80146B0FBF5F00201B1FBF5F06FF0AE
:101130001803584301EB800006EBC000B0FBF5F04C
:1011400000F0F80002EB4002B1FBF5F0584301EB70
:10115000800006EBC000B0FBF5F000F0070021684E
:1011600010448860BDE8F081FFF7FEFC61688B0FDA
:101170008A00A0FB0701FFF723F80146B0FBF5F05A
:101180006FF01802504301EB800006EB0010B0FB3B
:10119000F5F000F0F002B1FBF5F002EB0012B1FB4C
:1011A000F5F06FF01803584301EB800006EB0010D8
:1011B000B0FBF5F000F00F00D1E700000014014093
:1011C00000100140FEE700000FB4054B10B503A965
:1011D000044A029800F0DAF810BC5DF814FB000035
:1011E000BD1A0008100000100907090E002804DBD2
:1011F00000F1E02080F80014704700F00F0000F1CB
:10120000E02080F8141D704702E008C8121F08C1D2
:10121000002AFAD170477047002001E001C1121F77
:10122000002AFBD1704700002DE9FF5FDDE90220B5
:10123000010DDDF838B0024318D044F61050A1F289
:10124000FF3141430D140F98012820D0A5EB0B006E
:10125000401C5FEA000A4FF00004474EDFF81C9183
:10126000A046504616D5CAF1000728E00F98012481
:1012700043A2012808D0002100980F9BC0E900215B
:10128000C0E90243BDE8FF9F6FEA0B01F4E7CBF131
:101290000000DEE7074612E0F80707D02246334693
:1012A00040464946FFF7CCF88046894622463346F9
:1012B00010461946FFF7C4F804460E467F10002F6B
:1012C000EAD1DDE90201BAF1000F42464B4602DAEB
:1012D000FFF7B6F801E0FFF725F904460E460022B5
:1012E000284BFFF7A7F903D84FF0FF30014607E07E
:1012F0000022254B20463146FEF7FBFFFFF781F920
:10130000102409E0002C0ADB0A220023FEF758FF14
:10131000019B30321A55641E50EA0102F2D1641C5E
:10132000019AC4F1110314440F9A012A03D0012237
:1013300008430DD10AE0084304D000204FF0110B00
:101340000F9080E7A3EB0B056D1E0DE05B4504DD00
:101350004FF0000205F1010504E003DA4FF000024E
:10136000A5F10105002AECD000980F99C0E90231DF
:10137000C0E9004586E70000000024400000F03F7F
:10138000300000000000F0430000E03F2DE9FF4F77
:1013900095B09B468946064600250FE2252877D161
:1013A00000242746F84A0121059400E0044316F87A
:1013B000013F203B01FA03F01042F7D130782A2890
:1013C00011D06FF02F033078A0F13002092A16D81F
:1013D000059A44F0020402EB820203EB420210443D
:1013E000761C0590EFE759F8042B0592002A03DAE2
:1013F000504244F40054059044F00204761C3078C6
:101400002E2816D116F8010F44F004042A280DD016
:101410006FF02F023078A0F13003092B09D807EBC9
:10142000870302EB4303C718761CF3E759F8047BE4
:10143000761C30786C280FD006DC4C2817D0682832
:101440000DD06A2814D104E0742810D07A280FD166
:101450000DE044F400140AE044F4801401E044F484
:1014600040147278824202D104F58014761C761CF6
:10147000307866280BD013DC582877D009DC002898
:1014800075D04528F6D04628F4D047281AD19DE1DA
:1014900018E0632835D0642879D0652812D195E109
:1014A000702873D008DC6728F1D069286FD06E28C7
:1014B0000DD06F2806D1B5E073282CD0752875D0D3
:1014C000782874D05A46179990476D1C75E1C4F37B
:1014D0000250022809D003280DD0D9F800100428A2
:1014E0000DD00D6009F1040967E1D9F80010EA1781
:1014F000C1E90052F6E7D9F800100D80F2E70D704F
:10150000F0E719F8041B8DF8001000208DF8010099
:10151000EA46012003E059F804AB4FF0FF306107C1
:101520004FF0000102D40DE008F101018846B942F4
:101530000FDA8045F8DB1AF808100029F4D108E02A
:1015400008F1010188468142FADB1AF808100029E7
:10155000F6D105985B46A0EB080721463846179A56
:1015600000F094FA284400EB080507E04DE029E17B
:101570000DE01AF8010B5A4617999047B8F1010887
:10158000F7D25B4621463846179A13E142E00A2219
:101590000092C4F302524FF0000A022A08D059F810
:1015A00004CB032A4FEAEC710AD00DE029E02AE0CF
:1015B00009F1070121F00702F2E802C1914609E0B2
:1015C0000FFA8CFC4FEAEC71042A03D14FFA8CFC21
:1015D0004FEAEC71002907DA0A460021DCF1000C21
:1015E00061EB02012D2202E0220504D52B228DF8A9
:1015F0000420012203E0E20701D02022F7E7904611
:1016000059E00A2102E010220DE010214FF0000AFB
:1016100000910BE010224FF0000A44F00404082768
:10162000009203E008224FF0000A0092C4F3025235
:10163000022A05D059F804CB0021032A08D009E07A
:1016400009F1070121F00702F2E802C1914605E025
:101650001FFA8CFC042A01D10CF0FF0C4FF000089B
:10166000220728D5702806D0009B83F0100353EA88
:101670000A0305D00EE040228DF80420012208E084
:101680005CEA010206D030228DF804208DF80500B6
:1016900002229046009B83F0080353EA0A030AD112
:1016A0005CEA010201D1620705D530228DF80420E1
:1016B0004FF001087F1E582804D034A003900EA8D4
:1016C00002900DE036A0F9E753466046009AFEF717
:1016D00077FD84460398825C0298401E0290027057
:1016E0005CEA0100F0D1029806A9081A00F1200A6C
:1016F000600702D524F4803400E00127574502DD5D
:10170000A7EB0A0000E0002000EB0A01009005981A
:101710004144401A0590E00306D45B462146179ADF
:10172000059800F0B3F90544002706E001A85A46E1
:10173000C05D179990476D1C7F1C4745F6DBE003A1
:101740000CD55B462146179A059800F09FF9054491
:1017500004E030205A46179990476D1C0099481EA6
:1017600000900029F5DC08E0029802995A460078BA
:10177000491C0291179990476D1CBAF10001AAF11A
:10178000010AF1DC65E10000092801003031323343
:1017900034353637383961626364656600000000AD
:1017A0003031323334353637383941424344454697
:1017B0000000000000F058F90544761C307800283D
:1017C0007FF4ECAD19B02846BDE8F08F620700D475
:1017D000062709F1070222F0070CFCE80223E14684
:1017E00003F000485FEA080C02D00FF2702C0DE005
:1017F0005FEA045C02D50FF2682C07E05FEAC47C64
:1018000002D00FF2602C01E0AFF2700C4FF0FF3805
:1018100023F00043CDF850C065280CD006DC4528E5
:1018200009D046281DD047283DD13DE0662818D074
:1018300067287ED138E00021112F01DB112000E064
:10184000781CCDE9000106A90EA8FFF7EDFCDDE943
:101850000F010E9A03910021009207F1010A0491F1
:101860004DE04FF000400097CDE9011006A90EA809
:10187000FFF7DAFCDDE90F0203920E9B11990022BB
:10188000DDF80CA00093049211B9791C00EB010A59
:10189000B7EB0A0004D4C0F1FF3007F1010A04904D
:1018A000AAEB0700019044E0012F00DA0127002194
:1018B000112F01DD112000E03846CDE9000106A915
:1018C0000EA8FFF7B1FCDDE90F010E9A039100218C
:1018D00004910092BA4621070CD40399514500DACD
:1018E0008A46BAF1010F05DD009AAAF10101515CA7
:1018F000302908D0B84202DA10F1040F06DA0121CB
:10190000CDE9011015E0AAF10101E9E7002805DCA5
:10191000049901440491AAEB000102E0411C5145E5
:1019200000DD8A460499401A401C01904FF00040A7
:101930000290200704D40198504501DBCDF80480C3
:1019400000208DF84F0002980DF14F07B0F1004FC5
:1019500025D02B200E9002984FF0020800280CDAB8
:10196000404202902D200E9007E00A210298FEF7D7
:101970008BFC3031029007F8011DB8F10001A8F18D
:101980000108F2DC02980028EFD1791E0E98087049
:10199000307800F0200040F0450007F8020D12A852
:1019A000C01B00F107081498007800B1012000EB7B
:1019B0000A01019801EBE07105984144401A401E6C
:1019C0000590E00306D45B462146179A059800F07F
:1019D0005DF805441498007818B15A461799904755
:1019E0006D1CE00324D55B462146179A059800F04C
:1019F0004DF805441CE00498002807DBDDE90301ED
:101A0000884203DD0098405C179901E01799302067
:101A10005A469047049805F10105401C049001982E
:101A2000401E019004D12E205A46179990476D1CF4
:101A3000BAF10001AAF1010ADDDC05E017F8010B9B
:101A40005A46179990476D1CB8F10001A8F101089A
:101A5000F4DC5B462146179A0598ABE62D000000A2
:101A60002B000000200000002DE9F0410446002575
:101A70001E461746880404D405E039462020B047A6
:101A80006D1C641EF9D52846BDE8F0812DE9F041B2
:101A9000044600251E469046C80301D5302700E0C5
:101AA0002027880404D505E041463846B0476D1C20
:101AB000641EF9D52846BDE8F081000003490A6894
:101AC0005206FCD5C2B24A607047000000100140C7
:101AD00010B5002821D0114B0022001F196803E027
:101AE000814203D80A4649680029F9D152B11368E6
:101AF000841A9C4204D1006818441060104602E029
:101B0000506000E0186039B102680B1A934203D1AB
:101B10000B681A4402604968416010BD140000104F
:101B200010B5012A06D0022A07D0032A0DD0042AB4
:101B300021D10DE090ED040A01E090ED050A0022AC
:101B4000BCEEC00A10EE100A13E090ED060AF6E7AC
:101B500090ED070AF3E71C6804EB820494ED000A99
:101B600001EB8204521CD4ED000A30EE200A84ED11
:101B7000000A8242EFD3084610BD000010B592B0B3
:101B800030216846FEF754FB14210CA8FEF750FBE9
:101B900014480024016841F080510160006800F0A1
:101BA000805011901048016841F480410160006844
:101BB000069400F4804011900220009001200390D0
:101BC000102004906846FFF721F80F20CDE90C049F
:101BD0000E940F9400210CA81094FEF72BFF12B066
:101BE00010BD0000403802400070004010B5FEF704
:101BF000A7FEFFF7C3FFBDE8104000F0B7B8F8B587
:101C00000020009000F066F807466B460122002194
:101C100000F0C0F8054601466B4601223846FFF742
:101C20007FFF01460122384600F070F801466B46FE
:101C30000222384600F0AEF8064601466B46022204
:101C40003846FFF76DFF01460222384600F05EF885
:101C500004462846FFF73CFF6B46032221463846E0
:101C600000F098F8054601466B4603223846FFF718
:101C700057FF01460322384600F048F80446304634
:101C8000FFF726FF6B4604222146384600F082F813
:101C900001466B4604223846FFF742FF04462846B9
:101CA000FFF716FF3846FFF713FF2046F8BD000088
:101CB000074B10B51344002207E000BFB3EC010A44
:101CC00000EB8204521C84ED000A8A42F6D310BD58
:101CD0000000010810B501212020FEF7B4FA04002D
:101CE00004D000220821FFF7E3FF02E002A0FFF783
:101CF0006BFA204610BD000048656164206D616C80
:101D00006C6F63206669616C210D0A00012A06D0A0
:101D1000022A07D0032A0FD0042A22D10FE090ED27
:101D2000040A01E090ED050A0022BCEEC00A10EEA4
:101D3000100A9FED0D0A12E090ED060AF4E790ED0F
:101D4000070AF1E701EB8203D3ED000AF5EEC00AC2
:101D5000F1EE10FA01DC83ED000A521C92B28242CD
:101D6000F0D308467047000000000000084807490B
:101D700001604FF4E131416000218160C160016187
:101D800081610C214161FFF703B90000001001409F
:101D90001C0000102DE9F0470025994688462C4686
:101DA0002E469FED611AF1EE000AB7EE000A012AF5
:101DB00006D0022A38D0032A4DD0042A62D169E025
:101DC000D0ED032A90ED042A5849FCEEE21A11EEF8
:101DD000905AFCEEC21A11EE904AD0ED001A01EEB4
:101DE000A01ABCEEC11A11EE106A32EE801A42EE51
:101DF000011A32EE002A90ED051A41EE021A31EE78
:101E0000001A90ED062A32EE000A42EE011A90ED19
:101E1000071A41EE001A21EEA00ABCEEC00A10EE2D
:101E2000100A00EB01082DE0D0ED041AD0ED032AD2
:101E3000BCEEE12A32EE800A12EE105A90ED052A2D
:101E4000BCEEC22A12EE104A90ED002A01EE802A62
:101E500002EE201A12E090ED052AD0ED042A90ED52
:101E6000033AFCEEC21A11EE905AD0ED061AFCEEBF
:101E7000E11A11EE904AD0ED001A23E0BCEEC10A3F
:101E800010EE106A21460420FEF7DDF9070045D068
:101E900000203BE090ED062AD0ED032A90ED043AB5
:101EA000FCEEC21A72EE802A11EE905AD0ED071A9B
:101EB000FCEEE11A11EE904AD0ED001A43EE221A20
:101EC000D0ED052A33EE003A32EE800A42EE831A54
:101ED00042EE001A01EEA01AD0E7002107EB8002C3
:101EE00011E000BF05FB001306EB830392ED000A2F
:101EF000D3ED000A08EB8103491C93ED001A00EEB4
:101F0000810A82ED000AA942ECD3401CA042E4D32E
:101F10006C4306EB8401C9F8001002E004A0FFF74F
:101F200053F93846BDE8F0870010004D0000010865
:101F3000576569676874206F7574206D616C6C6F8C
:101F400063206669616C210D0A0000002DE9F047ED
:101F500086B0FFF74BFEFFF752FE0446C068FEF75F
:101F600080F981468A46A068FEF77BF907468846D5
:101F70006068FEF776F905460E462068FEF771F9AF
:101F80008DE8E00741EC100B05A053EC102BFFF798
:101F90001BF92046FFF79CFD06B00020BDE8F08746
:101FA0006D6F64656C206F7574203D205B25662025
:101FB00025662025662025665D0D0A00F0B50B30EC
:101FC000154D20F007010024144A0FE003688B42EE
:101FD0000BD38B4205D95E1A43184768C3E90067E3
:101FE00000E04368136002C004E0021D106800288E
:101FF000ECD12046002802D1286808B10020F0BDAD
:10200000064A07481060074A121A22F00702C0E980
:10201000002401202860D7E71800001014000010E9
:10202000040000200000022000000000000000006A
:10203000010203040607080900000000010203046E
:1020400070200008000000101C00000008120008AA
:102050007020000800000020000002001812000894
:102060008C2000081C00001044100000181200080A
:102070000100000010000000000000000024F40037
:0C20800000000000000000000000000054
:040000050800018965
:00000001FF
